:020000040800F2
:1000000000000220B9100008351000083710000861
:10001000391000083B1000083D10000800000000E7
:100020000000000000000000000000000140000887
:100030003F10000800000000914000084110000837
:100040000911000809110008091100080911000828
:100050000911000809110008091100080911000818
:100060000911000809110008091100080911000808
:1000700009110008091100080911000809110008F8
:1000800009110008091100080911000809110008E8
:1000900009110008091100080911000809110008D8
:1000A00009110008091100080911000809110008C8
:1000B00009110008091100080911000809110008B8
:1000C00009110008091100080911000809110008A8
:1000D0000911000809110008091100085910000849
:1000E0000911000809110008091100080911000888
:1000F0000911000809110008091100080911000878
:100100000911000809110008091100080911000867
:100110000911000809110008091100080911000857
:100120000911000809110008091100080911000847
:100130000911000809110008091100080911000837
:100140000911000809110008091100080911000827
:100150000911000809110008091100080911000817
:100160000911000809110008091100080911000807
:100170000911000809110008091100080000000019
:08018000091100080911000833
:1001900010B5054C237833B9044B13B10448AFF3C1
:1001A00000800123237010BD7400002000000000B7
:1001B0005450000808B5034B1BB103490348AFF383
:1001C000008008BD000000007800002054500008A6
:1001D00001F0FF01102A2BDB10F0070F08D010F8F8
:1001E000013B013A8B422DD010F0070F42B3F6D1FC
:1001F000F0B441EA012141EA014122F007047FF015
:1002000000070023F0E80256083C85EA010586EA6B
:10021000010685FA47F5A3FA87F586FA47F6A5FAA7
:1002200087F68EB9EED1F0BC01F0FF0102F00702B3
:1002300032B110F8013B013A83EA010313B1F8D15E
:100240000020704701387047002D06BF354603383F
:10025000073815F0010F07D1013015F4807F02BF78
:10026000013015F4C03F0130F0BC0138704700BFC9
:1002700053B94AB9002908BF00281CBF4FF0FF310D
:100280004FF0FF3000F06EB9ADF1080C6DE904CE0F
:1002900000F006F8DDF804E0DDE9022304B0704761
:1002A0002DE9F047089D04468C46002B40F08380E2
:1002B0008A42174647D9B2FA82F242B1C2F120000F
:1002C00024FA00F09140974040EA010C94404FEA34
:1002D0001748230CBCFBF8F61FFA87FE08FB16C173
:1002E00043EA014306FB0EF1994209D9FB1806F1D6
:1002F000FF3080F01981994240F21681023E3B4462
:100300005B1AA4B2B3FBF8F008FB103344EA0344D1
:1003100000FB0EFEA64509D93C1900F1FF3380F021
:100320000581A64540F2028102383C4440EA06407D
:10033000A4EB0E0400261DB1D4400023C5E9004300
:100340003146BDE8F08702B9FFDEB2FA82F2002A38
:1003500050D1CB1B4FEA174E1FFA87F80126B3FB8B
:10036000FEFC210C0EFB1C3341EA034108FB0CF39D
:100370008B4207D979180CF1FF3002D28B4200F280
:10038000E9808446C91AA3B2B1FBFEF00EFB10113E
:1003900043EA014408FB00F8A04507D93C1900F1E5
:1003A000FF3302D2A04500F2D9801846A4EB08041E
:1003B00040EA0C40BFE78B4209D9002D00F0B18024
:1003C0000026C5E9000130463146BDE8F087B3FAA2
:1003D00083F6002E4AD18B4202D3824200F2B880CB
:1003E000841A61EB030101208C46002DA8D0C5E9D9
:1003F000004CA5E7C2F1200320FA03F6974001FA6A
:1004000002F04FEA174ED9403043030CB1FBFEF621
:100410001FFA87F80EFB161143EA014306FB08F1A9
:10042000994204FA02F409D9FB1806F1FF3C80F066
:100430008D80994240F28A80023E3B445B1A81B231
:10044000B3FBFEF00EFB103341EA034100FB08F35F
:100450008B4207D9791800F1FF3C73D28B4271D9D6
:1004600002383944CB1A40EA064678E7C6F1200C38
:1004700003FA06F422FA0CF31C4320FA0CF701FAF3
:1004800006F34FEA144E21FA0CF11F433B0CB1FB6B
:10049000FEF91FFA84F80EFB191143EA014109FB2A
:1004A00008FA8A4502FA06F200FA06F308D961183A
:1004B00009F1FF3048D28A4546D9A9F10209214401
:1004C000A1EB0A01BFB2B1FBFEF00EFB101147EA2F
:1004D000014700FB08F8B84507D9E71900F1FF31DB
:1004E0002ED2B8452CD90238274440EA0940A7EB60
:1004F0000807A0FB02894F45C64649461AD317D0C4
:100500005DB1B3EB0E0267EB010707FA0CFCF2409A
:100510004CEA0202F740C5E9002700263146BDE853
:10052000F0872E4628460BE70646E9E61846FDE624
:100530004345E5D2B8EB020E69EB04010138DFE771
:100540000846D2E760468DE78146B9E7664675E71B
:1005500030464AE7ACF1020C394413E702383C4418
:1005600024E700BF704700BF70B5254D254C264ECF
:100570002A68C2F57A7313F1640F1BDA23880A3BE9
:1005800023803168C1F57A7313F1640F23DA1F48B1
:1005900003880A3B038040F2DC53994201DC9A4213
:1005A00004DD1A4A4FF47A7323801380322002F05C
:1005B00030FADDE713F1640F02D32388023BDFE753
:1005C000591E622902D823880233D9E7632BD8DD6C
:1005D00023880A33D4E713F1640F03D30B4803884D
:1005E000023BD7E7581E622803D808480388023325
:1005F000D0E7632BCFDD054803880A33CAE700BF85
:10060000404A0020344A0020544B0020444B002034
:1006100008B5054C20464FF4806100F078FF40F6A5
:10062000B83002F0F6F9F5E7001002407FB5134B41
:1006300001AC03F10802264618685968254603C52F
:10064000083393422C46F7D118689B88AB800C4C3A
:1006500028600023CDF81230ADF816302146304620
:1006600004F0F0F80A210846324603F0E3FF03F0F5
:1006700045FF4FF47A7002F0CCF9EFE76C500008B8
:10068000E44A00202DE9F043274C284F284D294EFD
:1006900087B03C21204601F084FA2368D3F82480F7
:1006A00000F07EFD814600F07BFDA0EB0900B0F577
:1006B0007A7F26D92268536A1268D2062AD59845CD
:1006C00023DDA8EB03033B603A68294601A804F048
:1006D00099F801AA14210A2003F0ACFF23681A68D4
:1006E0003146C2F3001201A804F08CF801AA1E21C1
:1006F0000A2003F09FFF2368D3F8248000F050FD08
:100700008146012002F085F9CDE7C3F57F43FF3331
:100710004344D8E7984502DAA3EB0803D3E7C8F5CA
:100720007F4808F1FF08F3E7FC4A0020544B002003
:10073000805000088A5000082DE9F043274C284FCC
:10074000284D294E87B03C21204601F02AFA236823
:10075000D3F8248000F024FD814600F021FDA0EBB9
:100760000900B0F57A7F26D92268536A1268D2064A
:100770002AD5984523DDA8EB03033B603A68294658
:1007800001A804F03FF801AA28210A2003F052FF33
:1007900023681A683146C2F3001201A804F032F847
:1007A00001AA32210A2003F045FF2368D3F82480F0
:1007B00000F0F6FC8146012002F02BF9CDE7C3F5ED
:1007C0007F43FF334344D8E7984502DAA3EB08039D
:1007D000D3E7C8F57F4808F1FF08F3E7484A00204F
:1007E000404A0020805000088A500008F0B51A4E98
:1007F0001A4F336887B05C6A00F0D2FC054600F0FF
:10080000CFFC401BB0F57A7F15D933685A6A1B6854
:10081000DB0619D5944212DDA21A394601A803F06D
:10082000F1FF0A2101AA084603F004FF33685C6A5D
:1008300000F0B6FC0546012002F0EBF8DFE7C2F558
:100840007F42FF322244E8E7944201DA121BE4E7D8
:10085000C4F57F44FF34F5E7484A0020985000086B
:1008600080B502F0BCF81D4B1D4F1E4E18600021D4
:100870004FF47A731C483B80338001F0AFFC0421B5
:100880001948DFF86C80194C01F0A8FC18480C21BD
:1008900001F0A4FCD8F80030134D94221A642046CD
:1008A0000022202100F02EFE20460122102100F01F
:1008B00029FE2B683A889A6320460022042100F022
:1008C00021FE20460122082100F01CFE2B68328800
:1008D0005A630A2002F09DF8DCE700BF984A002026
:1008E000344A0020444B0020A84900200000024068
:1008F0009C4A002000B595B02C22002109A803F0E5
:1009000079FF1422002103A803F074FF0023194A81
:100910000193116C41F080511164126C02F080520D
:100920000192019A144A0293116841F480411160C6
:1009300012680E9302F480420292029A02220892F6
:1009400001201022CDE90B0208A800F005FE0146A7
:1009500008B172B6FEE70F23CDE90330CDE90500FB
:10096000079003A800F0D2FF08B172B6FEE715B0F9
:100970005DF804FB003802400070004080B59AB07A
:1009800000F0E8FBFFF7B6FF1422002111A803F0E6
:1009900031FF0024A34B00941A6BA348A34D42F0EF
:1009A00010021A631A6B02F010020092009A01946E
:1009B0001A6B42F001021A631A6B02F001020192F3
:1009C000019A02941A6B42F004021A631A6B02F045
:1009D00004020292029A03941A6B42F002021A6312
:1009E0001B6B03F00203039322464FF4BC61039B8D
:1009F00000F088FD22468E483C2100F083FD012650
:100A00004FF4BC63884811A9CDE91136CDE91344F0
:100A100000F09EFC3C23CDE9113685481394022357
:100A200011A9149300F094FC1022214606A803F0AB
:100A3000E1FE1C2221460AA8CDE9044403F0DAFEB7
:100A40002022214611A803F0D5FE7A4BAC60C5E9FF
:100A50000034284641F61F43C5E90334C5E905447F
:100A600001F060F908B172B6FEE74FF4805306A9B1
:100A70002846069301F0A2FA08B172B6FEE72846AE
:100A800001F07CF908B172B6FEE7CDE9040004A9D3
:100A9000284601F0A5FB024608B172B6FEE76023C6
:100AA000CDE90A30CDE90C00CDE90E0010900AA97D
:100AB000284601F01BFA08B172B6FEE704220AA923
:100AC000284601F013FA08B172B6FEE7CDE911002D
:100AD000CDE9130015904FF40053189011A9284642
:100AE000169301F0BBFB08B172B6FEE7524C4FF013
:100AF0000A084FF080434FF6FF770325CDE90A003F
:100B0000C4E90030C4E90370CDE91150CDE91360A8
:100B1000CDE91580CDE91760A060A06111A920463C
:100B2000CDF8648001F056F908B172B6FEE7CDE960
:100B30000A000AA9204601F053FB08B172B6FEE78D
:100B40003E4B3F4A1861CDE90A00C3E90020C3E9E2
:100B50000207CDE91150CDE91360CDE91580CDE94B
:100B60001760986111A91846CDF8648001F032F938
:100B700008B172B6FEE7002330480AA9CDE90A336E
:100B800001F02EFB054608B172B6FEE701461022C1
:100B900006A803F02FFE1C2229460AA8CDE9045519
:100BA00003F028FE2946202211A803F023FE254C3D
:100BB0002549A560A023C4E900134FF47A73C4E962
:100BC0000335204680236561A36101F0ABF808B1CD
:100BD00072B6FEE74FF4805306A92046069301F053
:100BE000EDF908B172B6FEE7204601F0C7F808B18A
:100BF00072B6FEE7CDE9040004A9204601F0F0FA40
:100C000008B172B6FEE76023CDE90A30CDE90E00E7
:100C10000C9010900C220AA9204601F067F9A8B1A7
:100C200072B6FEE70038024000100240A8490020DA
:100C30000000024000040140FC4A0020484A002015
:100C4000000400409C4A002000000140CDE9110052
:100C5000CDE9130015904FF40053189011A92046C8
:100C6000169301F0FBFA064608B172B6FEE720467D
:100C700000F072F92C4D2D4A2E614FF4E133C5E995
:100C8000002328460C23C5E90266C5E90536EE6156
:100C900001F0CCFB044608B172B6FEE703F0EAFCB3
:100CA00023490A22284601F00CFE01F023FE2146CA
:100CB000204A214801F04AFE204B214A1860214673
:100CC000204801F043FE204B204A1860214620486E
:100CD00001F03CFE1F4B204A186021461F4801F0DE
:100CE00035FE1F4B1F4A186021461F4801F02EFE9B
:100CF0001E4B1F4A186021461E4801F027FE1E4B5E
:100D00001E4A186021461E481E4C01F01FFE1E4B55
:100D1000186001F001FE41F2883001F07AFE20688F
:100D200001F05FFEF7E700BFF049002000480040F7
:100D3000E44A00201451000811060008584B002016
:100D4000385100082D0600085C4B00205C5100085B
:100D500085060008F84A002080510008390700087D
:100D6000444A0020C8510008610800084C4B00208C
:100D7000EC51000869050008504B0020A451000800
:100D8000ED070008984A00203C4A00200349044827
:100D90004FF6FF730A2201F077BB00BFE44A002040
:100DA000F049002082B00E4B00220092596C41F4B1
:100DB00080415964596C01F480410091009901927D
:100DC000196C41F0805119641B6C03F0805301933E
:100DD000019B0F216FF0010002B000F00DBA00BFBF
:100DE0000038024010B5044688B01422002103A840
:100DF00003F000FD23681B4A93420DD100230093AA
:100E0000194B5A6C42F001025A645B6C03F0010307
:100E10000093009B08B010BD144A9342FAD1124BC4
:100E2000134800220192596C41F002015964596C37
:100E300001F00201019101990292196B41F0040144
:100E400019631B6B03F004030293029BC02102236E
:100E5000CDE90313032303A9CDE90522079300F08D
:100E600077FAD7E700000140003802400004014053
:100E70000008024070B514228AB0044600210DEB30
:100E8000020003F0B7FC2368B3F1804F39D103F5BA
:100E90000E33002400941A6C2B4842F001021A64AD
:100EA0001A6C02F001020092009A01941A6B42F04F
:100EB00001021A631A6B02F001020192019A029474
:100EC0001A6B42F002021A631B6B03F002030293D7
:100ED000029B02264FF40043012505A9CDE9053602
:100EE000CDE90744099500F033FA0823CDE905362A
:100EF000CDE907441548099505A900F029FA0AB07B
:100F000070BD134A9342FAD1124B0F48002203924C
:100F1000196C41F002011964196C01F0020103918E
:100F200003990492196B41F0010119631B6B03F0E3
:100F300001030493C021049B0223CDE90513CDE9ED
:100F40000722099305A9D8E70000024000040240E7
:100F5000000400400038024010B5044686B0142258
:100F6000002101A803F046FC22680F4B9A4218D1D9
:100F70000E4A0F4800230093116B41F010011163DA
:100F8000126B02F0100200924FF48041009A02228C
:100F9000CDE90112CDE9033301A90123059300F046
:100FA000D7F906B010BD00BF000001400038024074
:100FB0000010024010B5044688B01422002103A896
:100FC00003F018FC2268194B9A422CD103F5F83330
:100FD000002401941A6C164842F480221A641A6C98
:100FE00002F480220192019A02941A6B42F00402E8
:100FF0001A631B6B059403F0040302934FF44062E1
:10100000029B0223CDE9032303210723CDE9061325
:1010100003A900F09DF927202246052100F0ECF8F5
:10102000272000F01BF908B010BD00BF00480040A9
:1010300000080240FEE7FEE7FEE7FEE7FEE7704736
:1010400008B500F0A1F802F045FD012803D0BDE885
:10105000084003F04FB808BD014801F0D1BA00BF05
:10106000F04900200B4B196810B5024609B90A492E
:101070001960186809490A4C0244091B8A4206D9BA
:1010800003F080FB0C2303604FF0FF3010BD1A60AB
:10109000FCE700BF90000020B84F002000000220B5
:1010A00000040000034AD2F8883043F47003C2F809
:1010B0008830704700ED00E0DFF834D00D480E496D
:1010C0000E4A002302E0D458C4500433C4188C42A2
:1010D000F9D30B4A0B4C002301E013600432A24207
:1010E000FBD3FFF7DFFF03F053FBFFF747FC70472D
:1010F000000002200000002074000020E45C0008D2
:1011000074000020B44F0020FEE7000038B50E4AFE
:101110000E4B054618784FF47A73B3FBF0F3106862
:10112000B0FBF3F000F0A8F8044658B90F2D09D829
:10113000024629464FF0FF3000F05EF8044B20468F
:101140001D6038BD0120FCE70000002004000020E5
:101150000800002008B50B4B1A6842F400721A60B0
:101160001A6842F480621A601A6842F480721A6047
:10117000032000F02FF80F20FFF7C8FFFFF712FE43
:10118000002008BD003C0240034A044B11681B7854
:101190000B441360704700BF604B00200400002028
:1011A000014B1868704700BF604B002038B50446FB
:1011B000FFF7F6FF631C1CBF054B1B78054618BFE5
:1011C000E418FFF7EDFF431BA342FAD338BD00BF7D
:1011D000040000200749CA6822F4E06203021204F6
:1011E00003F4E063120C134343F0BF6343F4003392
:1011F000CB60704700ED00E0164B30B5DC68C4F3FF
:101200000224C4F10705231D042D28BF0425062B45
:101210004FF0FF338CBF033C002403FA05F521EAAD
:101220000501A34022EA0302A140002841EA02038B
:10123000ACBF00F16040084A4FEA0313B8BF00F0AA
:101240000F00DBB2AABF00F56140135480F80033F1
:1012500030BD00BF00ED00E014ED00E0002808DB29
:101260004209012300F01F0003FA00F0014B43F88C
:101270002200704700E100E00138B0F1807F0AD21F
:10128000064B074A5860F02182F8231000200722FD
:1012900098601A6070470120704700BF10E000E0BE
:1012A00000ED00E070B50446866DFFF779FF94F815
:1012B0003530022B054606D080236365002384F871
:1012C0003430012070BD23681A6822F016021A60BB
:1012D0005A6922F080025A61226C0AB9A26C1AB1D2
:1012E0001A6822F008021A601A6822F001021A60D5
:1012F00023681B6813F001030AD1E16D3F228A4085
:10130000B260012284F8352084F834301846D9E7D9
:10131000FFF746FF401B0528EAD920236365032019
:10132000002384F8350084F83430CBE790F835306A
:10133000022B03D0802343650120704702680523F8
:1013400080F83530136823F00103136000207047E4
:101350002DE9F74FDFF8A891674A00230D680124B3
:101360009C4004EA050CAC4340F0B1804D6805F0A8
:1013700003044FEA43080326671E06FA08F6012F06
:101380006FEA060634D8876807EA060ECF6807FAC0
:1013900008F747EA0E078760476827EA0C0EC5F38F
:1013A00000179F4047EA0E074760C76807EA060E26
:1013B0008F6807FA08F747EA0E07022CC76019D1B1
:1013C0004FEAD30A00EB8A0A03F0070BDAF8207021
:1013D0004FEA8B0B4FF00F0E0EFA0BFE27EA0E0EA4
:1013E0000F6907FA0BF747EA0E07CAF8207001E009
:1013F000032CDAD1076804FA08F43E40264315F4BA
:10140000403F066063D04FF0000ACDF804A0D9F841
:1014100044603A4C46F48046C9F84460D9F84460C8
:1014200006F480460196019E23F0030606F18046ED
:1014300006F59C3603F0030ED6F808804FEA8E0EB0
:101440000F2707FA0EF7A04228EA070746D004F54F
:101450008064A04244D004F58064A04242D004F5E8
:101460008064A04240D004F58064A0423ED004F5E0
:101470008064A0423CD004F58064A0423AD004F5D8
:101480008064A0420CBF0724082404FA0EF43C43F5
:10149000B46014686FEA0C06EF0354BF34404CEAA2
:1014A000040414605468AF0354BF34404CEA04048D
:1014B00054609468EF0254BF34404CEA04049460D2
:1014C000D468AD0254BF34404CEA0404D460013304
:1014D000102B7FF443AF03B0BDE8F08F5446D4E740
:1014E0000124D2E70224D0E70324CEE70424CCE78A
:1014F0000524CAE70624C8E7003C0140000002407A
:10150000003802400AB1816170470904FBE7436972
:1015100001EA030221EA030141EA024181617047C5
:10152000044B01221A60044B82B01B680193019B9B
:1015300002B0704720000E4200700040044B0022B1
:101540001A60044B82B01B680193019B02B0704784
:1015500020000E42007000402DE9F341044640B3E4
:101560000368DD0710D4236898075ED423681A0740
:1015700000F1A08023685B0700F1BE80A06900280D
:1015800040F01F8100202BE0A64B9A6802F00C026D
:10159000042A07D09A6802F00C02082A0BD15A6874
:1015A000510208D59F4B1B689A03DCD56368002B5A
:1015B000D9D1012014E06268B2F5803F13D11A68D6
:1015C00042F480321A60FFF7EBFD964E0546336811
:1015D0009B03C8D4FFF7E4FD401B6428F7D9032020
:1015E00002B0BDE8F0818F4DB2F5A02F2B6807D176
:1015F00043F480232B602B6843F480332B60E2E7B5
:1016000023F480332B602B6823F480232B60002A83
:10161000D9D1FFF7C5FD06462B689F03A3D5FFF779
:10162000BFFD801B6428F7D9D9E77E4B9A6812F07A
:101630000C0F07D09A6802F00C02082A11D15B68DF
:101640005E020ED4774B1A68950702D5E268012A2C
:10165000AFD11A68216922F0F80242EAC1021A6089
:1016600084E7E268704BB2B101221A60FFF798FD7F
:101670006C4D06462B68980707D52B68226923F026
:10168000F80343EAC2032B6070E7FFF789FD801B74
:101690000228EFD9A3E71A60FFF782FD614E0546E5
:1016A000336899077FF562AFFFF77AFD401B022888
:1016B000F6D994E762695D4B7AB101221A60FFF7AF
:1016C0006FFD584E0546736F9F073FF553AFFFF709
:1016D00067FD401B0228F6D981E71A60FFF760FD1D
:1016E000504E0546736F98077FF544AFFFF758FDDE
:1016F000401B0228F6D972E74A4B1A6C12F080524E
:1017000028D101921A6C42F080521A641B6C03F0CB
:1017100080530193019B0127454D2B68D9051BD5AB
:10172000A368404D012B27D12B6F43F001032B679A
:10173000FFF736FD3B4E054641F28838336F9B0775
:1017400039D5002F3FF41AAF364A136C23F080537B
:10175000136413E70027DFE72B6843F480732B60E3
:10176000FFF71EFD06462B68DA05D9D4FFF718FDF2
:10177000801B0228F7D932E7052B04D12B6F43F0E9
:1017800004032B67D0E72A6F22F001022A672A6F31
:1017900022F004022A67002BCAD1FFF701FD41F2B3
:1017A000883806462B6F9807CBD5FFF7F9FC801BCE
:1017B0004045F7D913E7FFF7F3FC401B4045BDD97F
:1017C0000DE7184DAB6803F00C03082B47D0194EFA
:1017D00000230228336035D1FFF7E2FC07462B686F
:1017E000990129D4D4E907321343626A43EA821388
:1017F000E26A43EA0263A26A5208013A43EA0243F8
:101800006B6001233360FFF7CBFC064D04462B6869
:101810009A013FF5B7AEFFF7C3FC001B0228F6D9CB
:10182000DDE600BF0038024000004742800E47421C
:101830000070004060004742FFF7B2FCC01B022866
:10184000CDD9CCE6FFF7ACFC04462B689B017FF5B5
:1018500099AEFFF7A5FC001B0228F6D9BFE60128C8
:101860003FF4BEAE6B68E26903F4800191427FF4FD
:10187000A0AE216A03F03F028A427FF49AAE616A09
:1018800047F6C0721A40B2EB811F7FF492AEA26A93
:10189000520803F44031013AB1EB024F7FF489AEB4
:1018A000E26A03F07063B3EB026F3FF46BAE80E665
:1018B000134908B58B6803F00C03042B1CD0082BCC
:1018C0001CD14A684B68496813F4800314BF0D4863
:1018D0000D48C1F3881118BF002302F03F02A1FB9D
:1018E0000001FEF7C5FC064B5B68C3F301430133FF
:1018F0005B00B0FBF3F008BD0248FCE70248FAE7E2
:101900000038024040787D010024F4002DE9F041C8
:101910000D46044610B90120BDE8F081444B1A6819
:1019200002F007028A4228D3226897072DD4D007F5
:1019300041D43F4B1A6802F00702AA4266D82268D7
:1019400051076CD4130707D53A4A2169936823F4E9
:10195000604343EAC1039360FFF7AAFF354B364A61
:101960009B68C3F30313D35CD840344B1860344BEB
:101970001868FFF7CBFB0020CEE7CAB21A701B68CD
:1019800003F007038B42C6D1CEE72A4B12F0040FB7
:101990001EBF996841F4E0519960160742BF9968EB
:1019A00041F4604199602349A0688B6823F0F003FB
:1019B00003438B60BBE762681E4B012A1CD11B6886
:1019C00013F4003FA7D01B4EB36823F00303134367
:1019D000B360FFF7E5FB41F288380746B3686268F9
:1019E00003F00C03B3EB820FA3D0FFF7D9FBC01BAE
:1019F0004045F3D903208FE7911E01291B6802D8C7
:101A000013F0007FDEE713F0020FDBE7EAB21A7093
:101A10001B6803F00703AB427FF47DAF8FE70549F6
:101A2000E0688B6823F4E05303438B608AE700BFD0
:101A3000003C024000380240105200080000002024
:101A400008000020044B054A9B68C3F38223D35C43
:101A5000034A1068D84070470038024020520008FE
:101A600000000020044B054A9B68C3F34233D35C5B
:101A7000034A1068D84070470038024020520008DE
:101A800000000020036A23F001030362036A70B5BB
:101A9000446882690D6822F073022A438D6823F03E
:101AA00002032B430E4DA84202D00E4EB04210D17D
:101AB000CE6823F008033343A84223F0040302D086
:101AC000084DA84205D1D1E9055624F440743543A8
:101AD0002C43446082614A684263036270BD00BF68
:101AE0000000014000040140036A23F48073036294
:101AF000036A70B54468C2690D6822F073022A4314
:101B00008D6823F4007343EA0523114DA84203D0E6
:101B100005F58065A84214D1CD6823F4006343EA3B
:101B200005230B4DA84223F4806303D005F580659F
:101B3000A84206D1D1E9055624F44054354344EA7D
:101B400005144460C2614A68C263036270BD00BF8D
:101B500000000140036A23F480530362036A30B536
:101B60004468C2690D6822F4E64242EA05228D68A3
:101B700023F4005343EA0533084DA84203D005F58A
:101B80008065A84204D14D6924F4804444EA851458
:101B90004460C2614A680264036230BD00000140D3
:101BA000704730B590F83E2090F83F3090F84250A2
:101BB00090F84340D2B2DBB2EDB2E4B2C9B9012A27
:101BC00046D1012D46D1022380F83E3080F84230C4
:101BD00003681A6A22F001021A621A6A42F00102CC
:101BE0001A620268136843F0010313600023184669
:101BF00030BD042911D1012B2AD1012CF7D10223A8
:101C000080F83F3080F8433003681A6A22F01002EF
:101C10001A621A6A42F01002E2E7012A18D1012B77
:101C200018D1012DE3D1012CE1D1022380F83E30FF
:101C300080F83F3080F8423080F8433003681A6AF9
:101C400022F001021A621A6A42F001021A62DCE70B
:101C50000123CCE71346CAE7304A0368904212D00A
:101C6000B0F1804F0FD0A2F57C4290420BD002F52C
:101C70008062904207D002F58062904203D002F564
:101C80007842904219D14A6823F070031343234AE3
:101C9000904229D0B0F1804F26D0A2F57C429042EC
:101CA00022D002F5806290421ED002F580629042FE
:101CB0001AD002F57842904216D0194A904213D0B9
:101CC00002F5806290420FD002F5806290420BD004
:101CD000A2F59832904207D002F58062904203D07C
:101CE00002F58062904203D1CA6823F44073134323
:101CF0004A6923F08003134303608B68C3620B6857
:101D00008362064B984203D003F58063984201D169
:101D10000B69036301234361704700BF000001406A
:101D20000040014010B5044630B390F83D3003F058
:101D3000FF021BB980F83C20FFF754F8022320680B
:101D400084F83D30211DFFF787FF012384F84630DA
:101D5000002084F83E3084F83F3084F8403084F826
:101D6000413084F8423084F8433084F8443084F8B9
:101D7000453084F83D3010BD0120FCE710B5044625
:101D800030B390F83D3003F0FF021BB980F83C20DF
:101D9000FFF706FF0223206884F83D30211DFFF77E
:101DA0005BFF012384F84630002084F83E3084F83D
:101DB0003F3084F8403084F8413084F8423084F871
:101DC000433084F8443084F8453084F83D3010BD09
:101DD0000120FCE7F8B50D46044600284DD090F8E8
:101DE0003D3003F0FF021BB980F83C20FFF742F8BA
:101DF0002146022384F83D3051F8040B836823F414
:101E0000804323F007038360FFF726FF20682B68D9
:101E100086688269A968076A1E43AB6922F440722A
:101E200022F0030241EA0323134323F47C422B698B
:101E3000E9691B0143EA0123E9680B43296A22F09F
:101E4000FC0243EA01331343696927F0AA026F6871
:101E5000866047EA0117836117430123076284F80C
:101E60004630002084F83E3084F83F3084F8423019
:101E700084F8433084F83D30F8BD0120FCE70000D1
:101E8000036A23F010030362036A70B54468826931
:101E90000D6822F4E64242EA05228D6823F0200311
:101EA00043EA0513104DA84203D005F58065A8420A
:101EB00014D1CD6823F0800343EA05130A4DA842EC
:101EC00023F0400303D005F58065A84206D1D1E98F
:101ED000055624F44064354344EA85044460826135
:101EE0004A688263036270BD0000014070B590F8DB
:101EF0003C30012B0546144654D00122082C80F8B2
:101F00003C203ED007D8CCB1042C29D0002385F842
:101F10003C30104670BD0C2CF8D10068FFF71AFE5B
:101F20002B680969DA6942F40062DA61DA6922F43D
:101F30008062DA61DA6942EA012231E00068FFF783
:101F4000A1FD2B6809699A6942F008029A619A69B1
:101F500022F004029A619A690A439A610022D5E745
:101F60000068FFF78DFF2B6809699A6942F40062E7
:101F70009A619A6922F480629A619A6942EA01221E
:101F8000EBE70068FFF7B0FD2B680969DA6942F0FA
:101F90000802DA61DA6922F00402DA61DA690A43D6
:101FA000DA61DBE70222B4E710B58468114324F458
:101FB0007F4441EA03232343836010BD70B590F84A
:101FC0003C30012B04464FF0020300F091800122C7
:101FD00080F83D3080F83C200068836823F47F431C
:101FE00023F0770383600B68602B52D033D8402BEB
:101FF00067D016D8202B0DD00AD833F0100109D0A5
:10200000012384F83D30002384F83C30104670BD35
:10201000302BF5D1826822F07002134343F007039E
:1020200017E0502BECD14A68CE68016A056A25F0AA
:1020300001050562836921F00A0123F0F00343EAF8
:1020400006130A4383610262836823F0700343F03E
:102050005703836011E0B3F5805F0ED0B3F5005FE6
:102060000DD0702BCCD1CB68D1E90121FFF79CFFBB
:102070002268936843F0770393600022C0E7CB683F
:10208000D1E90121FFF790FF2268936843F4804370
:10209000F2E74D68CE68016A21F0100101628269A1
:1020A000036A22F4704223F0A00343EA051342EAD4
:1020B000063282610362836823F0700343F0670392
:1020C000C7E74A68CE68016A056A25F0010505621E
:1020D000836921F00A0123F0F00343EA06130A435F
:1020E00083610262836823F0700343F04703B0E723
:1020F0001A468BE7036A01F01F0110B501248C40DA
:1021000023EA04030362036A8A401A43026210BD91
:1021100010B5044629B990F83E30012B1DD001209E
:1021200032E0042907D190F83F30012BF7D1022388
:1021300080F83F3014E0082907D190F84030012B97
:10214000EDD1022380F840300AE090F84130012BB5
:10215000E5D1022380F8413002E0022380F83E30CE
:1021600001222068FFF7C6FF2368194A93420CD06A
:1021700018498B4209D0B3F1804F0DD19A6802F013
:102180000702062A1FD1002010BD596C934241F46A
:1021900000415964F2D0EEE70F4A9342EED002F5C7
:1021A00080629342EAD002F580629342E6D002F563
:1021B00078429342E2D002F570529342DED0A2F50B
:1021C00094329342DAD01A6842F001021A60DAE7D8
:1021D000000001400004014000040040FFF798BFE8
:1021E00030B590F83C30012B4FF0020332D080F82C
:1021F0003D3003680D685C689A6824F070042C43D5
:102200005C60154CA3421AD0B3F1804F17D0A4F5EF
:102210007C44A34213D004F58064A3420FD004F59C
:102220008064A3420BD004F57844A34207D004F5A0
:102230007054A34203D0A4F59434A34204D1496856
:1022400022F080020A439A60012380F83D30002387
:1022500080F83C30184630BD0000014090F83C301A
:10226000012B1FD0CB688A6823F4407313434A685C
:1022700023F4806313430A6823F4006313430A6959
:1022800023F4805313434A6923F400531343CA6968
:1022900023F48043134302685364002380F83C30E6
:1022A0001846704702207047026802F10C0353E899
:1022B000003F23F490730C3242E800310268002999
:1022C000F2D102F1140353E8003F23F0010302F1BD
:1022D000140C4CE800310029F3D1036B012B0BD116
:1022E00002F10C0353E8003F23F0100302F10C0C41
:1022F0004CE800310029F3D1202380F83E30002340
:10230000036370470268C16838B5136923F440530A
:102310000B431361054683680069D168034368690C
:102320000343E86921F4164121F00C0103430B43F8
:10233000D3605369A96923F440730B4353611F4B66
:102340009A4203D003F580639A4224D1FFF78AFBB7
:10235000EA691923B2F5004FA0FB0301D5E9004358
:102360001CD11A4692184FF000035B41FDF780FF25
:102370006421B0FBF1F501FB1503DB003233B3FB45
:10238000F1F303F007025B0002EB051203F4F873AC
:102390001344A36038BDFFF755FBD9E79A009B0FA4
:1023A000FDF766FF6422B0FBF2F102FB11031B0193
:1023B0003233B3FBF2F303EB0113EAE70010014001
:1023C000F8B504460E4617461D462268136836EADD
:1023D000030301D1002028E06B1CF7D025B1FEF7E4
:1023E000DFFEC01B8542F0D2226802F10C0353E8E5
:1023F000003F23F4D0730C3242E8003021680028FB
:10240000F2D101F1140353E8003F23F0010301F17D
:10241000140040E80032002AF3D1202384F83D3034
:1024200084F83C2084F83E300320F8BD10B5044603
:1024300040B390F83D3003F0FF021BB980F83C2018
:10244000FEF7B8FD2268242384F83D30D36823F4D6
:102450000053D3602046FFF755FF23681A6922F422
:1024600090421A615A6922F02A025A61DA6842F4EB
:102470000052DA6000202023206484F83D3084F884
:102480003E3010BD0120FCE7F7B5174690F83D201F
:102490000093202A04460E4649D1002945D0002F3A
:1024A00043D090F83C20012A41D0012280F83C2002
:1024B00000252122056480F83D20FEF771FEA16809
:1024C000009BA784B1F5805F0246E78403D12169B0
:1024D00009B935460E46002184F83C10E18C89B2DA
:1024E00041B940212046FFF76BFF60B9202384F8F3
:1024F0003D3009E080212046CDE90023FFF760FF51
:10250000DDE9002310B1032003B0F0BD20684EB90F
:1025100035F8021BC1F308014160E18C013989B231
:10252000E184DBE716F8011BF6E70120ECE7022067
:10253000EAE77047704708B5806B0023C385C38402
:10254000FFF7F8FF08BD704713B590F83E30222B17
:1025500053D18168836A0268B1F5805F3DD101691A
:1025600000293DD15268C2F3080223F8022BC48D22
:102570008362013CA4B2C485002C2CD10368DA68C4
:1025800022F02002DA60DA6822F48072DA605A6996
:1025900022F001025A61202380F83E30036B012BA8
:1025A000036827D1046303F10C0252E8002F22F0E4
:1025B000100203F10C0444E800210029F3D11A6849
:1025C000D20605D501911A6801925B680193019BBF
:1025D000818DFFF7B8FF002010E039B9016929B9F2
:1025E0005268D2B21A70836A0133C0E7526802F0AF
:1025F0007F02F7E7FEF7CAFBEDE7022002B010BD4D
:10260000036837B51A68D9685D6912F00F0F044680
:1026100008D1950668D58D0666D503B0BDE8304073
:10262000FFF792BF05F0010001F4907505435BD000
:10263000D50705D5CB0542BF236C43F001032364C6
:10264000550704D518B1236C43F0020323649307A4
:1026500004D518B1236C43F004032364150707D590
:1026600001F0200303431EBF236C43F008032364DF
:10267000236C002B32D0900604D58A0602D5204662
:10268000FFF762FF23685B69256C03F0400305F0E8
:1026900008051D43204623D0FFF706FE2268536934
:1026A0005B0618D502F1140353E8003F23F0400302
:1026B00002F1140040E800310029F3D1A06B50B1C1
:1026C000724B0365FEF732FE40B1A06B036D03B0A1
:1026D000BDE8304018472046FFF72CFF03B030BD5F
:1026E000FFF728FF2564F9E7206B012840F091806F
:1026F000D50640F18E80C80640F18B800022019201
:102700001A6801925A680192019A5A6955064CD585
:10271000A16B0A68526892B2002ADFD0A08D904265
:10272000DCD9E285CA69B2F5807F36D003F10C02AC
:1027300052E8002F22F4807203F10C0040E80021DF
:102740000029F3D103F1140252E8002F22F0010214
:1027500003F1140040E800210029F3D103F1140231
:1027600052E8002F22F0400203F1140040E800215B
:102770000029F3D1202284F83E20216303F10C02CA
:1027800052E8002F22F0100203F10C0040E8002173
:102790000029F3D1A06BFEF785FDE38DA18DC91A49
:1027A00089B22046FFF7CFFE98E7E18D8AB2E18D2E
:1027B00089B2002992D0A18D891A89B200298DD0C1
:1027C00003F10C0252E8002F22F4907203F10C0581
:1027D00045E800200028F3D103F1140252E8002F4D
:1027E00022F0010203F1140545E800200028F3D18E
:1027F000202284F83E20206303F10C0252E8002FCF
:1028000022F0100203F10C0545E800200028F3D166
:10281000C7E7100628D50D0626D594F83D20212AB5
:102820007FF45CAFA168226AB1F5805F17D121699E
:10283000A9B932F8021BC1F3080159602262E28C87
:10284000013A92B2E284002A7FF448AFDA6822F0BB
:102850008002DA60DA6842F04002DA603EE7511C3A
:10286000216212785A60EAE750067FF537AF4A06D0
:102870007FF534AFDA6822F04002DA60202384F872
:102880003D302046FFF755FE28E700BF37250008FA
:10289000C285828522230022026480F83E300368CC
:1028A00080F83C208162D96841F48071D96059690F
:1028B00041F001015961D96841F02001D960104609
:1028C000704770B490F83E60202E10D161B15AB1BB
:1028D00090F83C40012C0AD0012480F83C400024B0
:1028E000046370BCFFF7D4BF012070BC70470220A6
:1028F000FBE70000EFF305832BB9064B186828B9F6
:1029000001221A6070476FF0050070474FF0FF30EA
:10291000704700BFF002002010B5EFF305845CB9EA
:10292000084B1A68012A0AD1074AD47702221A6092
:1029300000F044FE204610BD6FF00500FBE74FF0AD
:10294000FF30F8E7F002002000ED00E0F0B587B0BE
:10295000144600220B460592EFF30582D2B9C8B1A6
:10296000002C2FD0A569002D08BF1825691E372916
:10297000AC462BD86168C90728D466696EB1B20825
:10298000D4E9027E216857B1BEF15B0F02D92469F8
:1029900004B1EEB9059807B0F0BD8022F0E7BEF1B2
:1029A000000FF7D12469002CF4D10C4605A9CDE91C
:1029B00000C192B2214600F039FD01281CBF00235E
:1029C0000593E7E74FF0180C8022EFE71046E2E7A7
:1029D000CDE90147009500F0F1FC0590DAE701F040
:1029E00073B838B50546EFF305844CB958B100F01B
:1029F000A3FD04280AD0284600F046FD204638BD35
:102A00006FF00500FBE76FF00300F8E76FF00200DE
:102A1000F5E710B5EFF3058424B910B100F02AFFF3
:102A2000204610BD6FF00500FBE70000034B03607C
:102A3000034B0B6080231360704700BF940200209B
:102A400094000020034B0360034B0B604FF4807332
:102A500013607047F4060020F402002000F1080320
:102A60004FF0FF32C0E9022343600361002303609B
:102A7000704700230361704743684B609A688A601F
:102A80009A68516099600368086101330360704778
:102A900030B50C68631C0AD103695A684A609160BA
:102AA0008B605960036808610133036030BD00F139
:102AB0000802134652681568A542FAD9EDE7D0E935
:102AC000011203698A6051605968814208BF5A60E7
:102AD000002202611A68013A1A601868704710B53E
:102AE000044601F09FFAA46B01F0BEFAB4FA84F038
:102AF000400910BDF8B51546026C866B044652B904
:102B0000076847BB806800F0F5FFA76005460136FF
:102B1000A6632846F8BD65B9406801F05DFE6368AC
:102B2000226C1344A26863609342F0D3236863600D
:102B3000EDE7C06801F050FE226CE36851429B1A39
:102B40002268E36093423EBFA3685B18E360022DF6
:102B500001D116B1013E0025D9E73546D7E7034636
:102B600010B41A6C08466AB1DC68996814448C4247
:102B700028BF1968DC6028BFD960D9685DF8044BAC
:102B800001F02ABE5DF8044B704770B5044601F0B1
:102B900049FA94F8455004F124066DB2002D14DC76
:102BA000FF2384F8453001F05FFA01F03BFA94F816
:102BB000445004F110066DB2002D12DCFF2384F89E
:102BC0004430BDE8704001F04FBA636A002BE7D093
:102BD000304600F0E7FE08B100F070FF013D6DB235
:102BE000DCE72369002BE9D0304600F0DBFE08B1BA
:102BF00000F064FF013D6DB2DEE7000038B50D4620
:102C0000044640B94FF0500383F31188BFF36F8F30
:102C1000BFF34F8FFEE701F005FAD4E90F312268C8
:102C200062604B43D0185B1A1344A060E36000203D
:102C3000FF23A06384F8443084F8453095B92369B4
:102C400063B104F1100000F0ADFE38B10A4B4FF053
:102C500080521A60BFF34F8FBFF36F8F01F004FAF9
:102C6000012038BD04F11000FFF7F8FE04F1240044
:102C7000FFF7F4FEF2E700BF04ED00E013B51C46D9
:102C800040B94FF0500383F31188BFF36F8FBFF348
:102C90004F8FFEE743B94FF0500383F31188BFF322
:102CA0006F8FBFF34F8FFEE74AB191B94FF05003DA
:102CB00083F31188BFF36F8FBFF34F8FFEE741B1EE
:102CC0004FF0500383F31188BFF36F8FBFF34F8F23
:102CD000FEE750230193019B502B08D04FF0500387
:102CE00083F31188BFF36F8FBFF34F8FFEE7002987
:102CF00008BF2246019B22600123C4E90F0184F82A
:102D0000463019462046FFF779FF9DF8103084F8C9
:102D10004C30204602B010BD2DE9FF478846019295
:102D20001F46044640B94FF0500383F31188BFF3A8
:102D30006F8FBFF34F8FFEE751B9036C43B14FF074
:102D4000500383F31188BFF36F8FBFF34F8FFEE7FC
:102D5000022F0BD1E36B012B08D04FF0500383F30C
:102D60001188BFF36F8FBFF34F8FFEE700F0B2FE05
:102D7000064650B9019B4BB14FF0500383F31188C5
:102D8000BFF36F8FBFF34F8FFEE70026DFF8E8A099
:102D90004FF0000937E0019D1DB901F065F90020F1
:102DA00050E016B902A800F041FE01F05DF900F014
:102DB00049FC01F037F994F84430FF2B08BF84F840
:102DC000449094F84530FF2B08BF84F8459001F0FB
:102DD0004BF901A902A800F035FE002846D101F008
:102DE00021F9A26BE36B9A422FD101F03DF90199D1
:102DF00004F1100000F09EFD2046FFF7C6FE00F033
:102E0000C5FC50B3012601F00DF9A26BE36B9A42A9
:102E100001D3022FBFD13A4641462046FFF76AFE52
:102E2000636A1BB104F1240000F0BCFD38B1124B01
:102E30004FF080521A60BFF34F8FBFF36F8F01F0D6
:102E400013F9012004B0BDE8F08701F00DF9204628
:102E5000FFF79BFE00F09AFCD4E74FF08053CAF8CE
:102E60000030BFF34F8FBFF36F8FCBE72046FFF7E4
:102E70008CFE00F08BFC92E704ED00E02DE9F843B6
:102E8000894690461F46044640B94FF0500383F3ED
:102E90001188BFF36F8FBFF34F8FFEE751B9036CFB
:102EA00043B14FF0500383F31188BFF36F8FBFF32B
:102EB0004F8FFEE7022F0BD1E36B012B08D04FF0B1
:102EC000500383F31188BFF36F8FBFF34F8FFEE77B
:102ED00001F0C4F9EFF311864FF0500383F311882A
:102EE000BFF36F8FBFF34F8FA26BE36B9A4201D397
:102EF000022F23D194F84550A36B6DB23A46494650
:102F00002046FFF7F7FD6B1C13D1636A0BB9012054
:102F10000BE004F1240000F045FD0028F7D0B8F1E3
:102F2000000FF4D00120C8F8000086F31188BDE836
:102F3000F88301356DB284F84550E8E70020F4E7E6
:102F40002DE9F04385B00F460192044640B94FF099
:102F5000500383F31188BFF36F8FBFF34F8FFEE7EA
:102F600051B9036C43B14FF0500383F31188BFF3A1
:102F70006F8FBFF34F8FFEE700F0ACFD064650B9F0
:102F8000019B4BB14FF0500383F31188BFF36F8F58
:102F9000BFF34F8FFEE70026DFF8E0904FF0000808
:102FA0003BE0019D1DB901F05FF8002052E016B929
:102FB00002A800F03BFD01F057F800F043FB01F0E0
:102FC00031F894F84430FF2B08BF84F8448094F81B
:102FD0004530FF2B08BF84F8458001F045F801A972
:102FE00002A800F02FFD00283DD12046FFF777FD15
:102FF00098B3019904F1240000F09CFC2046FFF7EF
:10300000C4FD00F0C3FB38B94FF08053C9F800305D
:10301000BFF34F8FBFF36F8F012601F003F8A56B4D
:10302000002DBED039462046013DFFF798FDA5632F
:10303000236963B104F1100000F0B4FC38B10F4B08
:103040004FF080521A60BFF34F8FBFF36F8F01F0C4
:103050000BF8012005B0BDE8F0832046FFF795FD91
:1030600000F094FBD8E72046FFF78FFD00F08EFBC1
:103070002046FFF734FD0028CED096E704ED00E0AF
:1030800030B5074A002352F8335002EBC3041DB990
:1030900042F83310606030BD0133082BF3D1FAE7FA
:1030A000644B002070B504460D46164600F0BAFF8A
:1030B00094F84430FF2B04BF002384F8443094F884
:1030C0004530FF2B04BF002384F8453000F0CCFFCF
:1030D000A36B2BB93246294604F1240000F044FCCE
:1030E0002046BDE87040FFF750BD00002DE9F041DB
:1030F000044600F097FF2F4B2F4D1A682F4F0132D7
:103100001A602E68002E49D12C601B68012B1FD13C
:10311000B84640460136FFF7A1FC382E08F11408E6
:10312000F7D1DFF8C480264E4046FFF797FC3046C3
:10313000FFF794FC2348FFF791FC2348FFF78EFC30
:103140002248FFF78BFC224BC3F80080214B1E6006
:10315000214A136801331360204A63641168E36AEB
:1031600014208B4200FB037004F1040188BF13603C
:10317000FFF782FC00F078FF194B1B6863B12B68E6
:10318000DA6AE36A9A4207D2164B4FF080521A600D
:10319000BFF34F8FBFF36F8FBDE8F081104B1B68FB
:1031A000002BD5D12B68DA6AE36A9A4298BF2C606B
:1031B000CEE700BFBC0B0020500700205C070020BA
:1031C000E40B0020040C0020300C00201C0C00201C
:1031D0005407002058070020C80B0020CC0B00200B
:1031E000180C002004ED00E0D00B0020064A136804
:1031F0001968064B19B94FF0FF321A607047126810
:10320000D268D2685268F8E754070020F80B002013
:103210002DE9F047DDE909844FEA82094A4606466E
:103220000D46206BA5211F4601F0E4FA226BA9F19F
:103230000409914429F00709ADB36B1E04F134026F
:103240000F3513F8011F02F8011B197809B1AB42C1
:10325000F7D1002384F84330089D372D28BF372548
:103260004FF0000AE562E564201DC4F850A0FFF7A6
:1032700000FCC5F1380504F11800FFF7FAFBC4F8AB
:1032800054A02461A561646284F858A03A4631468E
:10329000484600F09BFE2060B8F1000F01D0C8F84E
:1032A0000040BDE8F08784F83450D5E710B590F8B9
:1032B000593004463BB9006B01F0B4F82046BDE834
:1032C000104001F0AFB8012BF9D0022B08D04FF01D
:1032D000500383F31188BFF36F8FBFF34F8FFEE767
:1032E00010BD000080B5DFF85C80124F124C134D0A
:1032F000236863B9124B1B68012BF8D94FF0805338
:10330000C8F80030BFF34F8FBFF36F8FEEE700F0C8
:1033100089FEFB68DE68301DFFF7D1FB2B68013B9F
:103320002B602368013B236000F09EFE3046FFF7D0
:10333000BDFFDDE7300C0020C00B0020BC0B0020DF
:103340005C07002004ED00E0F8B5164B164E1D6832
:103350000446306804300F46FFF7B1FB631C334668
:1033600007D137B131681148BDE8F8400431FFF7A3
:1033700083BB1A682C19546007D30D4A106819686A
:10338000BDE8F8400431FFF783BB0A4A10681968AA
:103390000431FFF77DFB084B1A68A24288BF1C600E
:1033A000F8BD00BF440C0020500700201C0C00207A
:1033B0005807002054070020F80B002070B586B095
:1033C000DDE90B5445B94FF0500383F31188BFF387
:1033D0006F8FBFF34F8FFEE744B94FF0500383F375
:1033E0001188BFF36F8FBFF34F8FFEE75C26059602
:1033F000059E5C2E08D04FF0500383F31188BFF375
:103400006F8FBFF34F8FFEE72563022584F8595075
:1034100004AD01950A9D02940095059EFFF7F8FE04
:103420002046FFF763FE049806B070BD2DE9F04317
:10343000074685B0900088461646994600F060FF22
:103440000546E8B15C2000F05BFF0446A8B100230C
:1034500080F859300D9B056301930C9B02900093FB
:1034600032464B4641463846FFF7D2FE2046FFF72C
:103470003DFE012005B0BDE8F083284600F0D2FFF4
:103480004FF0FF30F6E7000070B50446224D00F023
:10349000C9FD04B92C68261D3046FFF710FBA36A4E
:1034A0001BB104F11800FFF70AFB1C4A1368013333
:1034B00013602B68A3421BD119483146FFF7DCFA91
:1034C000184A13680133136000F0CEFD164B1B68D9
:1034D00003B32B68A3421DD1144B1B6893B14FF06B
:1034E000500383F31188BFF36F8FBFF34F8FFEE755
:1034F0000F4A13682046013B1360FFF7D7FEFFF722
:1035000075FEE1E70B4B4FF080521A60BFF34F8F0F
:10351000BFF36F8F70BD00BF50070020C80B0020A5
:10352000300C0020C00B0020180C0020C40B002021
:10353000BC0B002004ED00E0F8B5044640B94FF0A4
:10354000500383F31188BFF36F8FBFF34F8FFEE7F4
:10355000154B1B68834220D000F064FD134B656956
:103560001F68134B1E6800F07FFDBD4217D0B542A7
:1035700015D0104B9D4208D1A36A83B994F85830F6
:10358000012B0CBF02200320F8BD0B4B9D4208D03D
:10359000002D0CBF04200120F6E70020F4E70220F4
:1035A000F2E70420F0E700BF500700205407002096
:1035B000580700201C0C0020300C002010B588B0EB
:1035C000002407AA06A905A8CDE90544FFF72EFAAD
:1035D000059B0293069B079A15491648CDE90043BF
:1035E0002346FFF7EBFEA8B100F01AFB012813D128
:1035F0004FF0500383F31188BFF36F8FBFF34F8FEA
:103600000D4B4FF0FF321A600C4B18600C4B1C60D6
:1036100000F0A0FD08B010BD0130FBD14FF0500309
:1036200083F31188BFF36F8FBFF34F8FFEE700BFA7
:1036300028520008E5320008F80B0020180C002082
:10364000440C0020024A136801331360704700BF26
:10365000C40B0020014B1868704700BF440C0020C9
:103660003F4B1B682DE9F74F002B73D13D4B1D6875
:1036700001351D60BDB93C4B1A68126842B14FF06C
:10368000500383F31188BFF36F8FBFF34F8FFEE7B3
:10369000364A1968106818601160354A136801339A
:1036A0001360FFF7A3FD334E334F3368DFF8D48048
:1036B0009D424FF0000411D2D8F80030DA6A14238A
:1036C0005343FB58022B2D4B1B6828BF0124002BB2
:1036D00018BF0124204603B0BDE8F08FDFF88890C2
:1036E000DFF8A4A0D9F800301B681BB94FF0FF33F6
:1036F0003360E1E7D9F80030DB68D3F80CB0DBF8D1
:103700000420954201D23260D6E70BF1040108464D
:103710000191FFF7D4F9DBF82820019922B10BF1D0
:103720001800FFF7CCF90199DBF82C00DAF800203B
:103730001423904288BFCAF8000003FB0070FFF713
:103740009BF9D8F80010DBF82C20CB6A9A4228BFEE
:103750000124C7E70A4A1368013313600024B9E75C
:10376000C40B0020440C0020540700205807002000
:10377000FC0B0020F80B00205C070020480C002008
:10378000000C002050070020CC0B0020F7B5304C77
:10379000236843B94FF0500383F31188BFF36F8F51
:1037A000BFF34F8FFEE700F03DFC2368013B236031
:1037B00024682CB1002400F057FC204603B0F0BD73
:1037C000244B1B68002BF5D0234D244E244F1EE0C4
:1037D000EB68DC6804F11800FFF771F9211D084659
:1037E0000191FFF76CF9E36A326801991420934262
:1037F00000FB037088BF3360FFF73EF9194BE26AA4
:103800001B68DB6A9A4202D3174B01221A602B68AD
:10381000002BDDD10CB1FFF7E9FC144D2C6844B14D
:10382000114E0127FFF71CFF00B13760013CF9D1B1
:103830002C600D4B1B68002BBCD00D4B4FF0805201
:103840001A60BFF34F8FBFF36F8F0124B3E700BF40
:10385000C40B0020BC0B0020040C0020CC0B00206B
:103860005C07002050070020480C0020000C0020BE
:1038700004ED00E008B540B90E4B4FF080521A60DD
:10388000BFF34F8FBFF36F8F08BD0B4B196841B16A
:103890004FF0500383F31188BFF36F8FBFF34F8F47
:1038A000FEE7FFF7CFFEFFF74FFDFFF76FFF0028A2
:1038B000E2D0E9E704ED00E0C40B0020184B1A68E1
:1038C000184BF0B512B101221A60F0BD164D1A6006
:1038D000164A2B681427164607FB03F15018545854
:1038E0008CB144680831646844600A44944204BF5F
:1038F00062684260142202FB03625268D1680C4A7B
:1039000011602B60E1E743B94FF0500383F3118856
:10391000BFF36F8FBFF34F8FFEE7013BDCE700BFC4
:10392000C40B0020480C0020CC0B00205C070020BA
:103930005007002010B50C4640B94FF0500383F3F8
:103940001188BFF36F8FBFF34F8FFEE7054B1968E8
:103950001831FFF79DF820460121BDE81040FFF720
:10396000F3BC00BF5007002038B50D46144640B9DF
:103970004FF0500383F31188BFF36F8FBFF34F8F66
:10398000FEE7074B19681831FFF776F8002C21463F
:103990000CBF28464FF0FF30BDE83840FFF7D4BCDD
:1039A00050070020C36813B5DC6844B94FF05003DA
:1039B00083F31188BFF36F8FBFF34F8FFEE704F1DE
:1039C000180108460191FFF77AF8124B01991B681C
:1039D000EBB9211D08460191FFF771F80E4AE36A21
:1039E00010680199834288BF13600C4A142000FBC1
:1039F0000320FFF741F80A4BE26A1B68DB6A9A4230
:103A000085BF084B01200020186002B010BD064899
:103A1000EFE700BFC40B0020CC0B00205C070020A8
:103A200050070020480C0020040C0020034B1B68AA
:103A30000360034B1B684360704700BFFC0B002012
:103A4000440C002070B50C46054640B94FF05003B9
:103A500083F31188BFF36F8FBFF34F8FFEE741B938
:103A60004FF0500383F31188BFF36F8FBFF34F8F75
:103A7000FEE700F0D7FA0F4B196823685A1C10D0E4
:103A80000D482E6800686A68864201D08A420FD9C4
:103A9000881A83420AD95B1A134423602846FFF729
:103AA000C5FF002400F0E0FA204670BD002323602B
:103AB0000124F7E7440C0020FC0B0020014B0122FD
:103AC0001A607047480C0020014B1868704700BF0F
:103AD00050070020054B1B6833B1054B1B68002BBA
:103AE0000CBF02200020704701207047180C0020F6
:103AF000C40B002013B510B9002002B010BD1C4B40
:103B00001C68844208D04FF0500383F31188BFF340
:103B10006F8FBFF34F8FFEE7236D43B94FF0500314
:103B200083F31188BFF36F8FBFF34F8FFEE7E16A16
:103B3000E26C013B91422365DED0002BDCD1211DDC
:103B400008460191FEF7BBFFE36C0199E362C3F104
:103B50003802A261074A1068834288BF1360064A90
:103B6000142000FB0320FEF787FF0120C5E700BFFC
:103B700050070020CC0B00205C070020F7B5114C4B
:103B800000F050FA2568BDB90F4F104E3846FEF7C9
:103B900065FF3046FEF762FF0D4B0E4A1F600E4B6D
:103BA00010211E600A200D4B0095FFF767F820607A
:103BB00010B10B49FFF764FA03B0BDE8F04000F024
:103BC00053BA00BF700D0020F40C0020080D002037
:103BD0004C0C0020540C0020500C0020200D002024
:103BE0002D520008914208B5416000610AD8D21AEE
:103BF00083699A420DD2084B011D1868FEF748FFF1
:103C0000002008BD9A4201D2994202D2034B011D05
:103C1000F3E70120F5E700BF500C00204C0C00201A
:103C200010B588B0FFF7AAFF124B1B68B3B1002490
:103C300007AA06A905A8CDE90544FEF703FF059BE1
:103C40000293069B019302230093079A0A490B48AB
:103C50002346FFF7B3FB0A4B186040B94FF05003FF
:103C600083F31188BFF36F8FBFF34F8FFEE70120FF
:103C700008B010BD700D002032520008593D0008F8
:103C8000740D00207FB5164604461A4640B94FF021
:103C9000500383F31188BFF36F8FBFF34F8FFEE79D
:103CA0000D4D286880B10529CDE9001602940DDC80
:103CB000FFF710FF0023022808BF089A286818BFE2
:103CC0001A466946FFF728F804B070BD002369461C
:103CD000FFF7D4F8F8E700BF700D0020F0B51C4DD9
:103CE00085B000272B681A682AB91A4A116829601A
:103CF000136005B0F0BDDB68DC681E68211D084656
:103D00000391FEF7DCFE236A2046984794F828309A
:103D1000039913F0040FE5D0A36933449E4205D202
:103D2000286863602461FEF7B3FEDBE70023009799
:103D3000324619462046FFF7A5FF0028D2D14FF0A2
:103D4000500383F31188BFF36F8FBFF34F8FFEE7EC
:103D50004C0C0020500C00202DE9F04F774FDFF87D
:103D6000ECA187B0B9463B68D3F800B0BBF1000FB7
:103D700028D0DB68D3F800B00024714EFFF762FC56
:103D8000FFF768FC336898420546B0461CD33060A4
:103D90001CB36C4B1B681C68B4FA84F464096A4B4E
:103DA00022461868ABEB0501FFF77CF9FFF7EEFC44
:103DB00078B94FF08053CAF80030BFF34F8FBFF38C
:103DC0006F8F06E00124D8E7FFF788FF3560FFF723
:103DD000DDFC5D4E4FF0000B35E08345DFD8FFF78B
:103DE000D5FCD9F80030DB68DE68301DFEF767FED1
:103DF00096F82830580718D5B1695B462A465944C9
:103E00003046FFF7EFFEA0B1009423465A46214604
:103E10003046FFF737FF60B94FF0500383F3118846
:103E2000BFF36F8FBFF34F8FFEE723F0010386F8D8
:103E30002830336A30469847CBE7039B059998476B
:103E4000029B002B0ADA3068002202A9FFF778F8FB
:103E5000002888D0029B0498002BEEDB049C636949
:103E6000A3B9FFF7F7FBD8F800309842054601D216
:103E7000FFF734FF029BC8F80050092BE3D8DFE8B6
:103E800003F0090909343B540909343B201DFEF7AE
:103E900016FEE6E794F82830A16943F0010384F8A0
:103EA0002830039B2A4619442046FFF79BFE002832
:103EB000C9D0236A2046984794F828305907C2D5BC
:103EC000A2690399CDF800B000230A4420461946A0
:103ED000FFF7D8FE0028B6D14FF0500383F31188C6
:103EE000BFF36F8FBFF34F8FFEE794F8283023F0B6
:103EF000010384F82830A6E794F828300399A161DB
:103F000043F0010384F8283041B94FF0500383F3A4
:103F10001188BFF36F8FBFF34F8FFEE72B462A4602
:103F200029442046FFF75EFE8DE794F828309A0773
:103F3000DDD4204600F076FA85E700BF4C0C002067
:103F40001C0D0020500C0020700D002004ED00E03E
:103F500008480068006880F308884FF0000080F38C
:103F6000148862B661B6BFF34F8FBFF36F8F00DF67
:103F700000BF000008ED00E0DFF80C00016841F42C
:103F8000700101607047000088ED00E082B00023FE
:103F900001930D4B1B68013308D04FF0500383F39E
:103FA0001188BFF36F8FBFF34F8FFEE74FF05003C1
:103FB00083F31188BFF36F8FBFF34F8F019B002BEB
:103FC000FCD002B0704700BF0C0000204FF080739F
:103FD00040F8043C074B40F80C3C21F001016FF025
:103FE000020340F8081C40F8202C40F8243C4438D8
:103FF000704700BF8D3F0008000000000000000077
:10400000074B19680868B0E8F04F80F30988BFF3E0
:104010006F8F4FF0000080F311887047AFF300807E
:10402000500700204FF0500383F31188BFF36F8FC8
:10403000BFF34F8F0A4A13680133012B13600DD170
:10404000084B1B6813F0FF0F08D04FF0500383F3A9
:104050001188BFF36F8FBFF34F8FFEE7704700BF2C
:104060000C00002004ED00E0084A136843B94FF04B
:10407000500383F31188BFF36F8FBFF34F8FFEE7B9
:10408000013B13600BB983F3118870470C000020CB
:10409000EFF30980BFF36F8F154B1A681EF0100FF6
:1040A00008BF20ED108A20E9F04F10602DE90900CB
:1040B0004FF0500080F31188BFF34F8FBFF36F8F25
:1040C000FFF7FCFB4FF0000080F3118809BC196872
:1040D0000868B0E8F04F1EF0100F08BFB0EC108A6F
:1040E00080F30988BFF36F8F704700BFAFF3008084
:1040F0005007002008B54FF0500383F31188BFF339
:104100006F8FBFF34F8FFFF7ABFA18B1034B4FF030
:1041100080521A60002383F3118808BD04ED00E08B
:10412000084A0949002313600B60084B4FF47A7169
:104130001B68B3FBF1F30649013B0B6007231360D7
:10414000704700BF10E000E018E000E00000002031
:1041500014E000E0384B394A13B51968914208D190
:104160004FF0500383F31188BFF36F8FBFF34F8F6E
:10417000FEE71A68324B9A4208D14FF0500383F39E
:104180001188BFF36F8FBFF34F8FFEE72D4B1A7867
:10419000D2B20192FF221A701B782B4ADBB28DF843
:1041A00003309DF8033003F050031370274A0723B0
:1041B000136000219DF80300000603F1FF340CD4C6
:1041C00011B1032B136011D04FF0500383F311880A
:1041D000BFF36F8FBFF34F8FFEE79DF803305B0097
:1041E000DBB28DF8033001212346E3E74FF440733F
:1041F0001360019B134ADBB21370154B1A6842F42B
:1042000070021A601A6842F070421A60FFF788FF65
:10421000104B00241C60FFF7AFFE0F4A136843F0F9
:1042200040431360FFF794FEFFF748FBFFF7AEFE35
:10423000204602B010BD00BF00ED00E071C20F418A
:1042400070C20F4100E400E0780D00207C0D0020DA
:1042500020ED00E00C00002034EF00E0EFF30583D8
:104260000F2B0ED9104A9B5C104A12789A4208D93B
:104270004FF0500383F31188BFF36F8FBFF34F8F5D
:10428000FEE70B4B0B4A1B68126803F4E063934292
:1042900008D94FF0500383F31188BFF36F8FBFF33A
:1042A0004F8FFEE7704700BFF0E300E0780D00207D
:1042B0000CED00E07C0D002010B50F4B1A461B687A
:1042C0008342FBD354681119884201BF41681046EC
:1042D00009195160446801198B4207D107490968DF
:1042E0008B421FBF59681B680919416090420360E7
:1042F00018BF106010BD00BF98490020800D00203D
:104300002DE9F0410446FFF79DF93E4B3E481A68FF
:104310009C46D2B93D4A3E4B55071CBF073222F09E
:10432000070200211A6059603A4B23F00703C3E9E2
:104330000011991AC2E90031CCF80030364B1960EF
:10434000364B19604FF0004303600768274253D192
:10435000002C44D004F1080361071CBF23F00703BD
:104360000833002B48D02D4A16689E42904643D30E
:10437000274A15686968994201D22868A8B9DCF80B
:104380000000A84238D0C91A2868146810601029A3
:1043900012D9E81842070BD04FF0500383F311886D
:1043A000BFF36F8FBFF34F8FFEE72A460546E1E765
:1043B00041606B60FFF780FF6B681749184A086817
:1043C000F61A1F4300232B601368C8F8006086426A
:1043D00003F1010338BF0E6008346F601360FFF70C
:1043E000D5F963070AD04FF0500383F31188BFF368
:1043F0006F8FBFF34F8FFEE70024F0E72046BDE844
:10440000F08100BF800D002084490020840D002031
:10441000984900207C4900208C49002088490020D0
:104420009049002010B5044690B31A4A50F8043C55
:104430001268134208D14FF0500383F31188BFF381
:104440006F8FBFF34F8FFEE750F8081C41B14FF05C
:10445000500383F31188BFF36F8FBFF34F8FFEE7D5
:1044600023EA020340F8043CFFF7ECF80A4A54F848
:10447000043C1168A4F108000B441360FFF71CFF13
:10448000064A1368BDE8104001331360FFF77EB998
:1044900010BD00BF844900208849002094490020B5
:1044A00070B50A46044601B101221348124E4FF47A
:1044B0008071FDF727F80825002220213046FDF7FE
:1044C00021F823064CBF0122002240213046FDF78F
:1044D00019F8013D012220213046FDF713F8640050
:1044E00015F0FF05E4B2E7D1BDE8704002480122B3
:1044F0004FF48071FDF706B80010024070B50F4E02
:10450000B02400212046FFF7CBFF00210846FFF72B
:10451000C7FF00211020FFF7C3FF002516F8350064
:1045200001210135FFF7BCFF802DF7D10134E4B242
:10453000B82C06F10106E4D170BD00BFA44B0020E9
:10454000084908230020002201F832000132802AA5
:10455000FAD1013B13F0FF0301F10101F3D1FFF7A1
:10456000CDBF00BFA44B0020030630B513D43F29B4
:1045700011D801F007050A4CC908C1F10701C9B2F9
:1045800004EBC0000123C5F1070503FA05F5435C00
:1045900012B12B43435430BD23EA0503FAE700BFB1
:1045A000A44B00202DE9F74F1F46A2F1200A1F4B14
:1045B0009DF830B05FFA8AFA03EB0A1300931C4BA4
:1045C0000AEB4A0A03EB8A038146884601930C46AC
:1045D0000026B74202D103B0BDE8F08F0C2F0CBF0C
:1045E000019B009B9D5D04F108035FFA83FA2B0693
:1045F00058BFBBFA8BF2214604F101044CBF5A4666
:1046000052094846E4B2FFF7AFFFA4EB08026D0081
:10461000BA42EDB207D109F101005FFA80F9C24652
:1046200001365446D5E7A245E1D1F9E7AE56000878
:104630003A520008F7B504460D46561E012716F8F3
:10464000013F0BB903B0F0BD7A2C82BF1035EDB23B
:1046500000243A2D03D9FFF773FF00252C4600975D
:10466000204632780C2329460834FFF79BFFE4B23A
:10467000E5E7000010B5FCF753FF404B404C1A6FC4
:1046800022F001021A671A6F22F004021A67FCF77F
:1046900055FF002280212046FCF734FF6420FCF700
:1046A00085FD012220468021FCF72CFF0021AE2051
:1046B000FFF7F6FE0021D520FFF7F2FE0021502083
:1046C000FFF7EEFE0021A820FFF7EAFE00213F20C1
:1046D000FFF7E6FE0021D320FFF7E2FE00210846A7
:1046E000FFF7DEFE00214020FFF7DAFE00218D20DB
:1046F000FFF7D6FE00211420FFF7D2FE0021202074
:10470000FFF7CEFE00210220FFF7CAFE0021A12004
:10471000FFF7C6FE0021C020FFF7C2FE0021DA200D
:10472000FFF7BEFE00211220FFF7BAFE0021812014
:10473000FFF7B6FE0021EF20FFF7B2FE0021D920DF
:10474000FFF7AEFE0021F120FFF7AAFE0021DB20DB
:10475000FFF7A6FE00213020FFF7A2FE0021A420D3
:10476000FFF79EFE0021A620FFF79AFE0021AF2052
:10477000FFF796FEBDE81040FFF7E2BE00380240AA
:1047800000100240014B1868704700BF1000002065
:1047900070B50D4D0D4C641BA4100026A64209D126
:1047A0000B4D0C4C00F056FC641BA4100026A642D6
:1047B00005D170BD55F8043B98470136EEE755F832
:1047C000043B98470136F2E7DC5C0008DC5C00083B
:1047D000DC5C0008E05C00080A44914200F1FF3311
:1047E00000D1704710B511F8014B03F8014F914209
:1047F000F9D110BD02440346934200D1704703F83B
:10480000011BF9E70EB400B59CB01DAB02900690F9
:104810006FF00041094807910491094953F8042BAE
:1048200005910068019302A900F070F8029B002234
:104830001A701CB05DF804EB03B070471000002044
:104840000802FFFF034611F8012B03F8012B002A91
:10485000F9D170472DE9F0478E689E4282460C469A
:1048600090461F4638D88A8912F4906F32D0256856
:104870000969A5EB0109656905EB450505EBD575EA
:1048800001334B446D109D4238BF1D46530531D551
:10489000294600F039FB064650B90C23CAF800300F
:1048A000A38943F04003A3814FF0FF30BDE8F087B8
:1048B00021694A46FFF790FFA38923F4906343F0F0
:1048C0008003A381266165614E44A5EB090526603E
:1048D000A5603E46BE4200D93E463246206841466B
:1048E00000F0A8FAA36822689B1B3244A3602260F0
:1048F0000020DBE72A4600F061FB06460028E1D1F4
:104900002169504600F0B0FAC7E700002DE9F04FEA
:1049100098468B891B069DB007460D4614460ED55A
:104920000B6963B9402100F0EFFA2860286120B9D3
:104930000C233B604FF0FF30D1E040236B6100233C
:10494000099320238DF82930CDF80C803023DFF82F
:10495000A8818DF82A304FF0010923469A4613F8B2
:10496000012B0AB1252AF9D1BAEB040B0BD05B4617
:10497000224629463846FFF76DFF013000F0AA8035
:10498000099A5A4409929AF80030002B00F0A2804C
:1049900000234FF0FF32CDE905230AF1010A049309
:1049A00007938DF853301A935446052214F8011BCF
:1049B0005148FBF70DFC049AD8B9D00644BF202318
:1049C0008DF85330110744BF2B238DF853309AF8DC
:1049D00000302A2B15D0079A544600204FF00A0CBD
:1049E000214611F8013B303B092B4ED9B0B107925B
:1049F00014E0A0EB080309FA03F313430493A2465F
:104A0000D2E7039B191D1B680391002BBBBF5B42C0
:104A100042F0020207930793B8BF049223782E2B2B
:104A20000CD163782A2B35D1039B1A1D1B68039286
:104A3000002BB8BF4FF0FF3302340593DFF8C8A056
:104A4000217803225046FBF7C3FB40B14023A0EB83
:104A50000A0003FA00F0049B03430134049314F8A2
:104A6000011B26488DF828100622FBF7B1FB002811
:104A700038D0234B1BBB039B073323F007030833BA
:104A80000393099B3344099367E70CFB02320C46FE
:104A90000120A5E700230134059319464FF00A0CC5
:104AA000204610F8012B303A092A03D9002BC5D033
:104AB0000591C3E70CFB012104460123F0E703AB9A
:104AC00000932A460F4B04A93846AFF30080421CDE
:104AD0000646D6D1AB895B063FF52CAF09981DB0D1
:104AE000BDE8F08F03AB00932A46064B04A9384675
:104AF00000F07AF8EBE700BF9E5C0008A85C0008B5
:104B00000000000055480008A45C00082DE9F047AB
:104B1000164699468A680B69DDF820809342B8BF33
:104B20001346336091F8432007460C460AB101331F
:104B300033602368990642BF3368023333602568C7
:104B400015F0060506D104F1190AE36832689B1ACC
:104B5000AB4226DC94F84320131E226818BF0123C1
:104B600092062BD404F1430249463846C04701302F
:104B70001ED02368E568326803F00603042B08BFE3
:104B8000AD1AA36822690CBF25EAE575002593429A
:104B9000C4BF9B1AED1800261A34B5421AD1002062
:104BA00008E00123524649463846C047013003D148
:104BB0004FF0FF30BDE8F0870135C6E7E1185A1C19
:104BC000302081F84300224494F8451082F84310C5
:104BD0000233C7E70123224649463846C047013021
:104BE000E6D00136D9E700002DE9FF470C46914693
:104BF000277E0C99782F80469A4604F1430207D805
:104C0000622F0AD8002F00F0D880582F00F0A38020
:104C100004F1420684F842703AE0A7F16303152BD1
:104C2000F6D801A050F823F0814C0008954C0008FC
:104C3000114C0008114C0008114C0008114C0008E0
:104C4000954C0008114C0008114C0008114C00084C
:104C5000114C0008A14D0008C54C0008834D000808
:104C6000114C0008114C0008C34D0008114C0008FD
:104C7000C54C0008114C0008114C00088B4D000871
:104C80000B681A1D1B680A6004F1420684F8423062
:104C90000123A3E0256808682E0600F104030AD565
:104CA00005680B60002D03DA2D236D4284F8433034
:104CB0005E480A2319E015F0400F05680B6018BF25
:104CC0002DB2EFE70B682568181D0860280601D58E
:104CD0001D6802E06906FBD51D8854486F2F0CBF84
:104CE00008230A23002184F843106668A660002E7A
:104CF000A2BF216821F0040121600DB9002E4DD022
:104D00001646B5FBF3F103FB1157C75D06F8017DAD
:104D10002F46BB420D46F4D9082B0BD12368DF0781
:104D200008D5236961689942DEBF302306F8013C4B
:104D300006F1FF36921B2261CDF800A04B4603AA74
:104D400021464046FFF7E2FE01304CD14FF0FF30E4
:104D500004B0BDE8F087354884F8457023680E68D4
:104D60001F0656F8045B0E6014D5D90744BF43F004
:104D7000200323601DB9236823F020032360102340
:104D8000B0E7236843F0200323607823284884F8A1
:104D90004530E3E75E0648BFADB2E6E71646BBE73F
:104DA0000B68266860691D1D0D6035061B6801D5FE
:104DB000186002E07106FBD51880002323611646B7
:104DC000BAE70B681A1D0A601E6862680021304647
:104DD000FBF7FEF908B1801B606063682361002364
:104DE00084F84330A8E72369324649464046D04715
:104DF0000130ABD023689B0713D4E068039B984233
:104E0000B8BF1846A4E70123324649464046D0477A
:104E100001309BD00135E36803995B1AAB42F2DCA9
:104E2000EBE7002504F11906F5E700BFAF5C0008C9
:104E3000C05C0008884210B501EB020402D984422C
:104E4000234607D8431EA14208D011F8012B03F8CE
:104E5000012FF8E7024401468A4200D110BD13F841
:104E6000014D02F8014DF7E737B5002948D051F858
:104E7000043C0190002BA1F10404B8BFE41800F039
:104E8000D3F8204A01981368154633B9636014605B
:104E900003B0BDE8304000F0CDB8A3420BD9216883
:104EA0006218934204BF1A685B68636004BF5218BB
:104EB00022602C60ECE71A465B680BB1A342FAD97A
:104EC00011685518A5420BD1246821445418A342F7
:104ED0001160DDD11C685B68536021441160D7E725
:104EE00002D90C230360D3E7256861198B4204BF04
:104EF00019685B68636004BF491921605460C7E7A3
:104F000003B030BDA0490020F8B5CD1C25F0030545
:104F100008350C2D38BF0C25002D064601DBA942B3
:104F200003D90C2333600020F8BD00F07DF821493F
:104F30000A6814469CB9204F3B6823B92146304685
:104F400000F062F838602946304600F05DF8431CF6
:104F500023D10C233360304600F06CF8E3E723687C
:104F60005B1B17D40B2B03D923601C44256004E082
:104F70006368A2420CBF0B605360304600F05AF8E1
:104F800004F10B00231D20F00700C21ACCD01B1A1D
:104F9000A350C9E722466468CCE7C41C24F003048C
:104FA000A042E3D0211A304600F02EF80130DDD1C6
:104FB000CFE700BFA0490020A4490020F8B507466C
:104FC00014460E4621B9BDE8F8401146FFF79CBFD4
:104FD00022B9FFF749FF25462846F8BD00F030F812
:104FE000A0420FD221463846FFF78EFF0546002823
:104FF000F2D031462246FFF7EFFB31463846FFF745
:1050000033FFE9E73546E7E738B5064D00230446A8
:1050100008462B60FCF726F8431C02D12B6803B12D
:10502000236038BDA44F0020014800F011B800BF34
:10503000AC4F0020014800F00CB800BFAC4F00207E
:1050400051F8043C181F002BBCBF0B58C018704708
:1050500070477047F8B500BFF8BC08BC9E46704763
:0C506000F8B500BFF8BC08BC9E467047C5
:10506C0048656C6C6F20576F726C642100000000F7
:10507C000000000053706565643A2535640044698E
:10508C0072656374696F6E3A253564007270733A99
:10509C00253564006765745250530070696454611F
:1050AC00736B006D666F7277617264005541525478
:1050BC0000536572766F4D6F746F7200526967683A
:1050CC0074456E636F646572004C656674456E63FF
:1050DC006F6465720052696768744D6F746F7254B7
:1050EC0061736B004C6566744D6F746F72546173B1
:1050FC006B00446973706C61794F4C454400426C91
:10510C00696E6B4C656400000A51000800000000D9
:10511C000000000000000000000000000002000081
:10512C00180000000000000000000000FE50000805
:10513C000000000000000000000000000000000063
:10514C000002000008000000000000000000000049
:10515C00D550000800000000000000000000000016
:10516C000000000000020000080000000000000029
:10517C0000000000C8500008000000000000000003
:10518C000000000000000000000200000800000009
:10519C000000000000000000A0500008000000000B
:1051AC0000000000000000000000000000020000F1
:1051BC00080000000000000000000000AF500008D4
:1051CC0000000000000000000000000000000000D3
:1051DC0000020000080000000000000000000000B9
:1051EC00A7500008000000000000000000000000B4
:1051FC000000000000020000080000000000000099
:10520C000000000000000000000000000102030488
:10521C0006070809000000000102030449444C453C
:10522C0000546D725100546D72205376630000006F
:10523C0000000000000000000000000000003F40E3
:10524C000000000000000000300040003000400072
:10525C00000009000BC03D000BC03D00090018C048
:10526C0024407FE0224031800000180024C01B0045
:10527C000D803240018003801C4027401C80074079
:10528C000040100060000000000000000000000062
:10529C00000000001F8020404020000040202040E3
:1052AC001F8000000000090006001F800600090096
:1052BC000000040004003F80040004000000001003
:1052CC000060000000000000000004000400040066
:1052DC00040004000000000000400000000000007A
:1052EC000000002001C006003800400000001F80B4
:1052FC002040204020401F800000000010403FC094
:10530C0000400000000018C02140224024401840FA
:10531C00000010802040244024401B80000002002C
:10532C000D0011003FC0014000003C80244024408F
:10533C002440238000001F802440244034400380FC
:10534C0000003000200027C03800200000001B8027
:10535C002440244024401B8000001C0022C022401A
:10536C0022401F80000000000000084000000000E8
:10537C0000000000000004600000000000000000BD
:10538C0004000A00110020804040090009000900B7
:10539C0009000900000000004040208011000A00B4
:1053AC0004001800200023402400180000001F8077
:1053BC002040274029401F400000004007C0390012
:1053CC000F0001C0004020403FC0244024401B80FF
:1053DC0000001F80204020402040308000002040F2
:1053EC003FC0204020401F80000020403FC0244090
:1053FC002E4030C0000020403FC024402E00300022
:10540C0000000F001080204022403380020020401A
:10541C003FC0040004003FC02040204020403FC05B
:10542C002040204000000060202020203FC02000B1
:10543C00200020403FC024400B0030C020402040C2
:10544C003FC020400040004000C03FC03C0003C0B3
:10545C003C003FC0000020403FC00C4023003FC038
:10546C0020001F802040204020401F800000204052
:10547C003FC024402400180000001F802140214020
:10548C0020E01FA0000020403FC02440260019C08F
:10549C00004018C0244024402240318000003000DD
:1054AC0020403FC020403000000020003F800040E2
:1054BC0000403F80200020003E0001C00700380063
:1054CC002000380007C03C0007C038000000204016
:1054DC0039C0060039C0204000002000384007C009
:1054EC00384020000000304021C02640384020C009
:1054FC000000000000007FE0402040200000000081
:10550C0070000C0003800040000000004020402090
:10551C007FE00000000000002000400020000000A0
:10552C00000000100010001000100010001000000F
:10553C000000400000000000000000000280054058
:10554C00054003C0004020003FC0044004400380DD
:10555C0000000000038004400440064000000000EE
:10556C000380044024403FC00040000003800540FD
:10557C00054003400000000004401FC024402440AC
:10558C002000000002E00550055006500420204089
:10559C003FC00440040003C000400000044027C08A
:1055AC0000400000000000100010041027E0000074
:1055BC00000020403FC00140070004C004402040D0
:1055CC0020403FC000400040000007C0040007C05E
:1055DC00040003C00000044007C00440040003C0E2
:1055EC0000400000038004400440038000000410CD
:1055FC0007F00450044003800000000003800440C6
:10560C00045007F00010044007C0024004000400DE
:10561C000000000006400540054004C000000000EA
:10562C0004001F800440004000000400078000407C
:10563C00044007C000400400070004C001800600BD
:10564C000400060001C0070001C006000000044071
:10565C0006C0010006C0044000000410071004E05E
:10566C000180060004000000044005C00640044010
:10567C0000000000000004007BE04020000000005F
:10568C0000000000FFF000000000000040207BE064
:10569C0004000000000040008000400020002000BA
:1056AC0040000000000000000000000000000000AE
:1056BC0000000000000000001FCC000C00000000E7
:1056CC00000000000800300060000800300060009E
:1056DC000000022003FC1E20022003FC1E200220DE
:1056EC00000000000E1811043FFF10840C7800001D
:1056FC0000000F0010840F3800C007781884007861
:10570C00000000780F8410C411240E9800E400846B
:10571C000008080068007000000000000000000095
:10572C00000000000000000007E0181820044002F0
:10573C000000000040022004181807E000000000E0
:10574C0000000240024001800FF001800240024044
:10575C0000000080008000800FF800800080008036
:10576C0000000001000D000E000000000000000011
:10577C00000000000080008000800080008000801D
:10578C0000800000000C000C000000000000000075
:10579C0000000000000600180060018006001800E0
:1057AC002000000007F0080810041004080807F097
:1057BC0000000000080408041FFC000400040000A2
:1057CC00000000000E0C10141024104411840E0C58
:1057DC00000000000C1810041104110412880C7045
:1057EC000000000000E00320042408241FFC002417
:1057FC00000000001F981084110411041088107010
:10580C000000000007F008881104110418880070CB
:10581C00000000001C00100010FC13001C00100005
:10582C00000000000E3811441084108411440E380E
:10583C00000000000700088C10441044088807F092
:10584C000000000000000000030C030C000000002E
:10585C000000000000000001010600000000000034
:10586C000000000000800140022004100808100411
:10587C00000002200220022002200220022002202E
:10588C0000000000100408080410022001400080F1
:10589C00000000000E001200100C106C10800F00A5
:1058AC00000003E00C1813E4142417C4082807D0D4
:1058BC0000000004003C03C41C40074000E4001C32
:1058CC00000410041FFC1104110411040E88007054
:1058DC00000003E00C1810041004100410081C1035
:1058EC00000010041FFC100410041004080807F03A
:1058FC00000010041FFC1104110417C41004081834
:10590C00000010041FFC1104110017C01000080047
:10591C00000003E00C181004100410441C78004024
:10592C00000010041FFC10840080008010841FFCF9
:10593C0010040000100410041FFC100410040000DC
:10594C00000000030001100110011FFE10001000E8
:10595C00000010041FFC110403801464181C1004B4
:10596C00000010041FFC1004000400040004000CD0
:10597C00000010041FFC1F0000FC1F001FFC100483
:10598C00000010041FFC0C04030000E010181FFCA6
:10599C00100007F00808100410041004080807F0A1
:1059AC00000010041FFC10841080108010800F0069
:1059BC00000007F0081810241024101C080A07F225
:1059CC00000010041FFC1104110011C011300E0C4A
:1059DC00000400000E1C11041084108410441C38A8
:1059EC0000001800100010041FFC10041000180018
:1059FC00000010001FF810040004000410041FF82D
:105A0C00100010001E0011E0001C007013801C0020
:105A1C0010001FC0103C00E01F0000E0103C1FC035
:105A2C0000001004180C163401C001C01634180CF8
:105A3C00100410001C00130400FC13041C001000C4
:105A4C0000000804101C1064108413041C041018AB
:105A5C0000000000000000007FFE400240024002F7
:105A6C000000000030000C0003800060001C0003EC
:105A7C00000000004002400240027FFE00000000D7
:105A8C00000000000000200040004000400020000A
:105A9C0000000001000100010001000100010001F3
:105AAC000001000040004000200000000000000049
:105ABC00000000000098012401440144014400FC52
:105ACC00000410001FFC0088010401040088007011
